:100000000C942A000C9434000C9434000C943400AA
:100010000C9434000C9434000C9434000C94340090
:100020000C9434000C9434000C9434000C94340080
:100030000C9434000C9434000C9434000C94340070
:100040000C9434000C9434000C9434000C94340060
:100050000C94340011241FBECFE5D8E0DEBFCDBF25
:100060000E9436000C945A000C9400008FEF84BB61
:1000700015BA33E026E09CE089E035BBE7EAF1E61B
:100080003197F1F700C0000025BBE7EAF1E63197B0
:10009000F1F700C0000095BBE7EAF1E63197F1F710
:1000A00000C0000085BBE7EAF1E63197F1F700C038
:0800B0000000E3CFF894FFCF3C
:00000001FF
