:100000000C942A000C943F000C943F000C943F0089
:100010000C943F000C943F000C943F000C943F0064
:100020000C943F000C943F000C943F000C943F0054
:100030000C943F000C943F000C943F000C943F0044
:100040000C943F000C943F000C943F000C943F0034
:100050000C943F0011241FBECFE5D8E0DEBFCDBF1A
:1000600010E0A0E6B0E0E6E9F7E002C005900D92EE
:10007000AC37B107D9F70E9486030C94C9030C94DE
:100080000000672B09F09FC0009711F4D8980895DD
:100090008130910511F4D99808958230910511F4B9
:1000A000DA9808958330910511F4DB98089584302F
:1000B000910511F4DC9808958530910511F4DD98CF
:1000C00008958630910511F4DE98089587309105E2
:1000D00011F4DF9808958A30910511F4C0980895BD
:1000E0008B30910511F4C19808958C30910511F46D
:1000F000C29808958D30910511F4C39808958E30FB
:10010000910511F4C49808958F30910511F4C598A4
:1001100008958031910511F4C698089581319105B3
:1001200011F4C79808958431910511F4A8980895A1
:100130008531910511F4A99808958631910511F43E
:10014000AA9808958731910511F4AB9808958831E4
:10015000910511F4AC9808958931910511F4AD9889
:1001600008958A31910511F4AE9808958B31910567
:1001700011F4AF9808958E31910511F49098089577
:100180008F31910511F4919808958032910511F401
:10019000929808958132910511F4939808958232CE
:1001A000910511F4949808958332910511F495986E
:1001B00008958432910511F496980895859709F071
:1001C0009FC097980895009711F4D89A08958130A8
:1001D000910511F4D99A08958230910511F4DA9AB3
:1001E00008958330910511F4DB9A089584309105C8
:1001F00011F4DC9A08958530910511F4DD9A089583
:100200008630910511F4DE9A08958730910511F436
:10021000DF9A08958A30910511F4C09A08958B30C1
:10022000910511F4C19A08958C30910511F4C29A88
:1002300008958D30910511F4C39A08958E3091057B
:1002400011F4C49A08958F30910511F4C59A089558
:100250008031910511F4C69A08958131910511F408
:10026000C79A08958431910511F4A89A08958531AB
:10027000910511F4A99A08958631910511F4AA9A6D
:1002800008958731910511F4AB9A0895883191054D
:1002900011F4AC9A08958931910511F4AD9A08953D
:1002A0008A31910511F4AE9A08958B31910511F4BC
:1002B000AF9A08958E31910511F4909A08958F3177
:1002C000910511F4919A08958032910511F4929A52
:1002D00008958132910511F4939A0895823291051F
:1002E00011F4949A08958332910511F4959A089522
:1002F0008432910511F4969A0895859709F4979A96
:100300000895CF93C82F80FF03C061E070E002C062
:1003100060E070E080E090E00E944100C1FF03C017
:1003200061E070E002C060E070E081E090E00E9477
:100330004100C2FF03C061E070E002C060E070E015
:1003400082E090E00E944100C3FF03C061E070E0E2
:1003500002C060E070E083E090E00E944100C4FFD2
:1003600003C061E070E002C060E070E082E290E013
:100370000E944100C5FF03C061E070E002C060E080
:1003800070E083E290E00E944100C6FF03C061E09C
:1003900070E002C060E070E084E290E00E94410002
:1003A000C7FF03C061E070E002C060E070E085E27A
:1003B00090E0CF910C944100CF93C82F60E070E0A3
:1003C0008AE190E00E9441008C2F0E94810161E04F
:1003D00070E08BE190E00E9441008FE99FE001977F
:1003E000F1F700C0000060E070E08BE190E00E9457
:1003F00041008FE99FE00197F1F700C00000CF9125
:10040000089581E00C94DC01813011F480E803C090
:10041000823021F480EC860F0C94DC01089560E0BA
:1004200070E08AE190E00E94410060E070E08BE1C2
:1004300090E00E9441002FEF89EF90E02150804032
:100440009040E1F700C0000080E30E94DC018FE1F2
:100450009EE40197F1F700C0000080E30E94DC01F8
:100460008FE99FE00197F1F700C0000080E30E9450
:10047000DC018FE39CE90197F1F700C0000088E3FD
:100480000E94DC018CE00E94DC0181E00E94DC0122
:1004900086E00C94DC01CF93C82F61E070E08AE124
:1004A00090E00E9441008C2F0E94810161E070E089
:1004B0008BE190E00E9441008FE99FE00197F1F706
:1004C00000C0000060E070E08BE190E00E9441001D
:1004D0008FE99FE00197F1F700C00000CF910895E8
:1004E000CF93DF93EC018991882319F00E944B028E
:1004F000FACFDF91CF9108958CE10C94DC0188E173
:100500000C94DC01CF93C82F80FF03C061E070E042
:1005100002C060E070E082E290E00E944100C1FF12
:1005200003C061E070E002C060E070E083E290E050
:100530000E944100C2FF03C061E070E002C060E0C1
:1005400070E084E290E00E944100C3FF03C061E0DC
:1005500070E002C060E070E085E290E0CF910C9422
:100560004100CF93C82F60E070E08AE190E00E94E4
:1005700041008C2F0E94820261E070E08BE190E0EC
:100580000E9441008FE99FE00197F1F700C0000051
:1005900060E070E08BE190E00E9441008FE99FE015
:1005A0000197F1F700C00000CF91089580E00E940C
:1005B000B10281E00C94B102CF93C62F813011F4C7
:1005C00080E803C0823069F480EC8C0F85958595B6
:1005D000859585950E94B1028C2F8F70CF910C94D8
:1005E000B102CF91089580E00E9482022FEF89EF3F
:1005F00090E0215080409040E1F700C0000083E08F
:100600000E94B1028FE19EE40197F1F700C0000063
:1006100083E00E94B1028FED9BEA0197F1F700C0E1
:10062000000083E00E94B10282E00E94B10282E0F9
:100630000E94B10288E00E94B10280E00E94B102F3
:100640008CE00E94B10280E00E94B10286E00C942E
:10065000B102CF93C82F61E070E08AE190E00E9480
:1006600041008C2F85958595859585950E94820200
:1006700061E070E08BE190E00E9441008FE99FE033
:100680000197F1F700C0000060E070E08BE190E0BE
:100690000E9441008FE99FE00197F1F700C0000040
:1006A0008C2F8F700E94820261E070E08BE190E0FD
:1006B0000E9441008FE99FE00197F1F700C0000020
:1006C00060E070E08BE190E00E9441008FE99FE0E4
:1006D0000197F1F700C00000CF910895CF93DF9309
:1006E000EC018991882319F00E942903FACFDF9148
:1006F000CF91089581E00E94B1028CE00C94B10288
:1007000081E00E94B10288E00C94B1028FEF81BBBE
:1007100084BB0E94F30288EF0E94B10281E00E9434
:10072000B10280E690E00E946E03CFE0D0E02FEFB0
:1007300089E698E1215080409040E1F700C0000038
:100740000E948003219799F7CFE0D0E02FEF89E650
:1007500098E1215080409040E1F700C000000E94E5
:100760007A03219799F70E94D60261E082E00E9405
:10077000DC0285E60E94290383E50E9429032FEF0E
:1007800087EA91E6215080409040E1F700C00000E8
:06079000C2CFF894FFCF78
:10079600656C656374726F536F6D65204C434420BE
:0C07A60048656C6C6F20576F726C64002B
:00000001FF
