:100000000C942A000C9447000C9447000C94470071
:100010000C9447000C9447000C9447000C94470044
:100020000C9447000C9447000C9447000C94470034
:100030000C9447000C9447000C9447000C94470024
:100040000C9447000C9447000C9447000C94470014
:100050000C94470011241FBECFE5D8E0DEBFCDBF12
:1000600011E0A0E6B0E0EAE6F2E102C005900D92F0
:10007000A431B107D9F721E0A4E1B1E001C01D929C
:10008000AE31B207E1F70E94EA080C9433090C94F0
:10009000000020E030E0281739074CF4EFE9FFE0DA
:1000A0003197F1F700C000002F5F3F4FF4CF089564
:1000B000C19A85ED8A95F1F70000C198089598B32B
:1000C000937C98BB84FDC29A85FDC39A86FDC49A31
:1000D00087FDC59A0C945800CF93C82F0E945F00EB
:1000E0008C2F8295807F0E945F00C598CF910895E4
:1000F000C0980C946C00C09A0C946C0083E30E942E
:10010000780082E30E94780088E20E9478008FE005
:100110000E94780086E00E94780081E00E947800CA
:1001200083E090E00C94490081E00E94780083E035
:1001300090E00C94490080E80C94780061506330A2
:1001400030F4E62FF0E0E057FF4F908101C090E0DF
:100150008058890F0C947800682F80E00C949E00E2
:10016000CF93DF93EC018991882319F00E947B00E3
:10017000FACFDF91CF910895CF93DF93CDB7DEB75C
:1001800028970FB6F894DEBF0FBECDBF1A82198232
:10019000FE01339626E0DF011D922A95E9F740E142
:1001A000BE016F5F7F4F0E94FE08CE0101960E9444
:1001B000B00028960FB6F894DEBF0FBECDBFDF911A
:1001C000CF910895CF93DF93CDB7DEB728970FB6C1
:1001D000F894DEBF0FBECDBF1A821982FE0133969E
:1001E00026E0DF011D922A95E9F74AE0BE016F5F24
:1001F0007F4F0E94FE08CE0101960E94B000289613
:100200000FB6F894DEBF0FBECDBFDF91CF9108953A
:1002100011B888E480B9089594EA96BF06B607FE3F
:10022000FDCF83B984E886BF06B607FEFDCF91B146
:10023000987F81E0983109F080E00895CF93C82F2E
:10024000CF3F39F08C2F0E940C01811104C0CF5F89
:10025000F7CF80E001C08C2FCF9108950C940C0152
:1002600083B984E886BF06B607FEFDCF91B1987FBB
:1002700081E0983209F480E0089584EC86BF06B6E8
:1002800007FEFDCF83B1089584E886BF06B607FE5A
:10029000FDCF83B10895CF93C62F0E940C018C2F00
:1002A0000E94300184E986BFCF910895CF93DF93F8
:1002B000D62FC42F0E940C018D2F0E9430018C2F4D
:1002C0000E94300184E986BFDF91CF910895CF93DA
:1002D000DF93C82FD62F0E940C018D2F0E94300172
:1002E00081E08C0F0E940C010E94440194E996BFAA
:1002F000DF91CF910895EF92FF920F931F93CF93C9
:10030000DF93EC017B018A0162E080ED0E946701CE
:10031000888361E080ED0E946701F701808360E0DF
:1003200080ED0E946701F8018083888186FF02C00A
:100330008F7101C08F738883DF91CF911F910F91CF
:10034000FF90EF900895EF92FF920F931F93CF933A
:10035000DF937C018B01EA0165E080ED0E9467017B
:10036000F701808364E080ED0E946701F8018083DB
:1003700066E080ED0E9467018883DF91CF911F9135
:100380000F91FF90EF90089546E065E080ED0E94A8
:10039000560143E064E080ED0E94560148E166E0CA
:1003A00080ED0E94560145E162E080ED0E94560119
:1003B00048E461E080ED0E94560140E060E080ED9D
:1003C0000C9456018FE387BB14BA8FEF81BB08955D
:1003D000EF92FF921F93CF93DF93809160009091F3
:1003E00061004AE0489F9001499F300D112480919F
:1003F000620090916300280F391FC0911801D091BD
:100400001901E0E6F0E0DF0180E090E060E070E0FC
:100410001AE06C177D07CCF44D915C911197149FF5
:100420007001159FF00C112412964D915C91139759
:100430004E0D5F1D4217530714F0A90101C0CB01F7
:100440006F5F7F4F18969A01E4CFDC0143E0AA0F5B
:10045000BB1F4A95E1F7A05ABF4F14964D915C918E
:1004600015971AE0149FB001159F700D1124169670
:100470004D915C911797640F751F40E050E04C1749
:100480005D072CF548175907F1F0A081B1811A9F3B
:1004900070011B9FF00C1124A281B381AE0DBF1D12
:1004A0002A173B0781F4A481B5811A9F70011B9F15
:1004B000F00C1124A681B781AE0DBF1DA617B7079A
:1004C00014F4CA01BD014F5F5F4F3896D8CF9093A7
:1004D0001B0180931A0123E0880F991F2A95E1F7E9
:1004E000FC01E05AFF4F80819181909381008093BD
:1004F0008000828193819093830080938200848125
:100500009581909385008093840086819781909354
:10051000870080938600DF91CF911F91FF90EF902D
:1005200008954F925F926F927F929F92AF92BF9287
:10053000CF92DF92EF92FF920F931F93CF93DF93AF
:1005400000D01F92CDB7DEB76DB67EB6AE014F5F5D
:100550005F4FBE016E5F7F4FCE0103960E947B010D
:100560008B819A81282F22952F708F703AE0239FDC
:10057000800D1124292F22952F709F70F92E6AE08B
:10058000269FF00C112440911801509119019A01F5
:10059000220F331FEDB7FEB7E21BF30B0FB6F89433
:1005A000FEBF0FBEEDBF2DB73EB72F5F3F4F5901C6
:1005B000B0E64B2EB0E05B2ED20100E010E020E070
:1005C00030E00417150734F57C9112966C91129760
:1005D0009AE0799F600D1124681770F0861316C099
:1005E00014967C91149716966C911697EAE07E9F6C
:1005F000600D11246F1550F4B901660F771F6A0D55
:100600007B1DFB01118300832F5F3F4F0F5F1F4F47
:100610001896D7CF80E090E0841795070CF0A2C021
:10062000D50160E070E02617370751F00D911D915C
:100630008017910719F06F5F7F4FF5CF0196ECCFD0
:10064000DC0163E0AA0FBB1F6A95E1F7A05ABF4F18
:100650006C9112969C90FAE06F9F900C1124A0E68A
:10066000B0E060E070E06417750704F5750100E024
:1006700010E02017310751F0F701C190D1907F01B0
:100680006C157D0579F00F5F1F4FF3CF0C9112961B
:100690001C911297EAE00E9F100D1124191510F409
:1006A000CB01912E6F5F7F4F1896DDCFDC01E3E029
:1006B000AA0FBB1FEA95E1F7A05ABF4F14966C91A1
:1006C00014971696DC90FAE06F9FD00C112460E02E
:1006D00070E0641775070CF58501A0E0B0E02A17FB
:1006E0003B0749F0F801E190F1908F016E157F050D
:1006F00071F01196F4CF6817790749F0F201B081D3
:10070000A281FAE0BF9FA00D11249A1671F16F5FCC
:100710007F4FE8E04E0E511CDCCF90931B0180937D
:100720001A0173E0880F991F7A95E1F7FC01E05AEE
:10073000FF4F80819181909381008093800082811E
:10074000938190938300809382008481958190931C
:1007500085008093840086819781909387008093A1
:1007600086000FC00E94E8010CC0F201B481A6818E
:10077000FAE0BF9FA00D1124AD1548F6CB01DA2E8B
:10078000C6CF0FB6F8947EBE0FBE6DBE0F900F9011
:100790000F90DF91CF911F910F91FF90EF90DF901D
:1007A000CF90BF90AF909F907F906F905F904F9051
:1007B0000895C59A8AEF90E00E944900C5988AEF93
:1007C00090E00C944900CF9381E00E94AC0083E953
:1007D00090E00E94B000C1E080E20E947B008C2F7C
:1007E0000E941E01882339F0C1E0C80F90E00E94EA
:1007F000BC00C111F1CFCF910895CF93C82F82953E
:100800008F70805D0E947B008C2F8F70805DCF91F8
:100810000C947B00CF93DF9300D01F92CDB7DEB74F
:10082000AE014F5F5F4FBE016E5F7F4FCE010396FB
:100830000E94A3018B810E94FD038FE20E947B0036
:100840008A810E94FD038FE20E947B0089810E94C1
:10085000FD030F900F900F90DF91CF910895CF93EC
:10086000DF9300D01F92CDB7DEB7AE014F5F5F4F71
:10087000BE016E5F7F4FCE0103960E947B018B818C
:100880000E94FD038AE30E947B008A810E94FD038F
:100890008AE30E947B0089810E94FD0380E20E941E
:1008A0007B008B81282F22952F70309180009091B2
:1008B00082004AE0349F900D11248F703AE0239F0C
:1008C000800D112498134EC08A81282F22952F70F5
:1008D00030918400909186004AE0349F900D11245D
:1008E0008F703AE0239F800D112498133BC08091B4
:1008F000160190911701892B91F520911A013091E1
:100900001B018091180190911901F90143E0EE0F4C
:10091000FF1F4A95E1F7E05AFF4F28173907A4F463
:100920002F5F3F4F408551855183408342855385DA
:100930005383428344855585558344834685578533
:10094000578346833896E9CF019790931901809396
:10095000180181E090E0909317018093160180E4E4
:1009600082BB3FC0109217011092160180911801AE
:1009700090911901892B91F587EE93E09093870070
:1009800080938600909385008093840090938300E9
:1009900080938200909381008093800090938F00D9
:1009A00080938E0090938D0080938C0090938B00A9
:1009B00080938A00909389008093880090936700C9
:1009C0008093660090936500809364009093630029
:1009D0008093620090936100809360000E94910276
:1009E00012BA0F900F900F90DF91CF91089580E091
:1009F0000E94AC000C942F0480E00E94AC000E9486
:100A0000F70481E00E94AC00809180009091810009
:100A1000873E23E09207A9F0209182003091830065
:100A2000273E334071F02091840030918500273EAD
:100A3000334039F02091860030918700273E3340C3
:100A400029F48AE990E00E94B00018C00E94E200F8
:100A500080918200909183000E94E20088E990E0FA
:100A60000E94B00080918400909185000E94E20075
:100A700080918600909187000E94E2000E949C086D
:100A8000BBCF4F925F926F927F928F929F92AF9265
:100A9000BF92CF92DF92EF92FF920F931F93CF936B
:100AA000DF938BB38F608BBBC0E0D0E030E8432E88
:100AB000512C48E0642E712C58E0852E912C8AB37D
:100AC0001ABA2AB3C2010C2E02C0959587950A94D2
:100AD000E2F7822B8ABB7E0100E010E089B390E050
:100AE0009301002E02C0359527950A94E2F78223E0
:100AF0009323892B09F0C5C1209709F0E8C001159F
:100B0000110509F04CC080911C0190911D010897BE
:100B100009F0AEC184EA90E00E94B000A0911801F3
:100B2000B0911901CD01019690931901809318019C
:100B300010921D0110921C0123E0AA0FBB1F2A95E1
:100B4000E1F7A05ABF4F88E0E8E8F0E001900D928D
:100B50008A95E1F70E9491028FEF90E7E2E08150E1
:100B60009040E040E1F700C000000E9494008091B6
:100B700018019091190101960E94E20060E082E064
:100B80000E949E0089EA90E00E94B00060E088E048
:100B90000E949E008FEA90E00E94B00064C1013084
:100BA000110509F06EC00E94940080911801909187
:100BB0001901892B39F08091600090916100873E86
:100BC000934051F481EB90E00E94B00081E00E94DC
:100BD000AC008DEB90E002C184EC90E00E94B0008C
:100BE00080916000909161000E94E200809162001B
:100BF000909163000E94E20088E990E00E94B000BA
:100C000080916400909165000E94E20080916600EE
:100C1000909167000E94E20081E00E94AC0080E6B3
:100C2000C82E80E0D82EAA24A394B12C28E0C20EAE
:100C3000D11C8091180190911901A816B9060CF0E9
:100C400017C1F601808191810E94E200F601828144
:100C500093810E94E20088E990E00E94B000F601D2
:100C6000848195810E94E200F601868197810E942D
:100C7000E2008FEE90E00E94B000FFEFAF1ABF0AD3
:100C8000D5CF0230110589F410921501109214018C
:100C90003FEF80E792E0315080409040E1F700C0A4
:100CA00000000E9494000E94FC040E9494008CECBE
:100CB00090E00E94B000EFEFF0E722E0E150F0405A
:100CC0002040E1F700C000000E948507D1C080915C
:100CD0001C0190911D0103301105E9F5C330D105C8
:100CE000D9F4009731F08330910519F086309105E1
:100CF00011F4029601C0019690931D0180931C018E
:100D000080911C0190911D01099709F0ACC01092CF
:100D10001D0110921C01A7C0C130D105E1F4823041
:100D2000910531F08530910519F08830910511F465
:100D3000029701C0019790931D0180931C0180913F
:100D40001C0190911D01019609F08DC090921D012A
:100D500080921C0188C0EBE0EE16F10431F59C0195
:100D6000277F232B09F484C08230910529F4109247
:100D700089001092880016C08330910529F41092E2
:100D80008B0010928A000EC08530910529F41092D4
:100D90008D0010928C0006C0069721F410928F00EF
:100DA00010928E0080E090E049C08830910509F4EF
:100DB0005FC0009721F50115110509F059C0C13038
:100DC000D10509F055C08091180190911901833027
:100DD000910539F40E94940081EF90E00E94B000E8
:100DE00047C001960E94E20080911C0190911D0174
:100DF000029690931D0180931C0160E037C0823001
:100E0000910529F4F0928900E092880016C08330A1
:100E1000910529F4F0928B00E0928A000EC0853093
:100E2000910529F4F0928D00E0928C0006C006979F
:100E300021F4F0928F00E0928E00C7010E94E20040
:100E400080911C0190911D01009731F08330910534
:100E500019F08630910511F4029601C00196909325
:100E60001D0180931C0160E080911C010E949E0086
:100E7000FFEF29EF30E0F15020403040E1F700C0B3
:100E800000000F5F1F4F83E0E80EF11C04301105D6
:100E900009F024CE2196C430D10509F010CEDF919F
:100EA000CF911F910F91FF90EF90DF90CF90BF9067
:100EB000AF909F908F907F906F905F904F9008952C
:100EC0000E94940060E080E00E949E008BE091E030
:100ED0000E94B00060E082E00E949E0089EA90E0FB
:100EE0000E94B00060E088E00E949E008FEA90E0DF
:100EF0000E94B00010921D0110921C0160E080E081
:100F00000E949E000E944105FDCF0E94940080E84F
:100F1000E82EF12C98E0C92ED12C0E9494008091EB
:100F2000180190911901892B61F481EB90E00E94E6
:100F3000B00081E00E94AC008DEB90E00E94B00018
:100F400046C080916000909161000E94E200809113
:100F50006200909163000E94E20088E990E00E94A4
:100F6000B00080916400909165000E94E200809141
:100F70006600909167000E94E20081E00E94AC0050
:100F8000C0E6D0E001E010E0289680911801909131
:100F9000190108171907DCF4888199810E94E20081
:100FA0008A819B810E94E20088E990E00E94B00063
:100FB0008C819D810E94E2008E819F810E94E200CF
:100FC0008FEE90E00E94B0000F5F1F4FDDCF8FE3E8
:100FD0009CE90197F1F700C000008BB38F608BBBD9
:100FE000C0E0D0E08AB31ABA2AB3C7010C2E02C0FF
:100FF000959587950A94E2F7822B8ABB00E010E072
:1010000089B390E09601002E02C0359527950A9489
:10101000E2F782239323892B09F082C0209731F4D1
:101020000230110509F073C00E9460070115110517
:1010300009F06DC08091180190911901C130D1055E
:10104000E1F4E0E6F0E020E030E0281739070CF0AA
:1010500055C02F5F3F4F4085518551834083428566
:101060005385538342834485558555834483468500
:101070005785578346833896E8CFC230D105D9F4D7
:10108000E0E6F0E021E030E0389628173907B4F5C3
:101090002F5F3F4F40855185518340834285538563
:1010A00053834283448555855583448346855785BC
:1010B00057834683E9CF8330910504F1209178006E
:1010C00030917900309371002093700020917A0064
:1010D00030917B00309373002093720020917C004C
:1010E00030917D00309375002093740020917E0034
:1010F00030917F0030937700209376000197909392
:101100001901809318010E9494000E9491028FEFB0
:1011100099EF20E0815090402040E1F700C00000AE
:101120000F5F1F4F0430110509F06ACF2196C430BC
:10113000D10509F057CFF1CE8BB38F608BBB80E028
:1011400090E0E0E8F0E0A8E0B0E02AB31ABA4AB3D1
:101150009F01082E02C0359527950A94E2F7242BAB
:101160002ABB20E030E049B350E0BD01022E02C0AE
:10117000759567950A94E2F746235723452BF9F4B2
:101180000097A1F42230310589F481E090E090933A
:101190001501809314012FEF40E752E021504040A9
:1011A0005040E1F700C000000E9460076FEF49EF78
:1011B00050E0615040405040E1F700C000002F5F18
:1011C0003F4F2430310579F601968430910509F0BE
:1011D000BCCF08950E94E2010E947E000E94080197
:1011E0008DE091E00E94B0000E94E30382E390E072
:1011F0000E9449000E9494000E94FC04BB274A30D0
:1012000031F4992322F4BDE2909581959F4F0C947F
:101210000A09BB27FB015527AA27880F991FAA1F78
:10122000A41710F0A41B83955051B9F7A05DAA3301
:1012300008F0A95DA193009779F7B111B1931192CC
:10124000CB010C942309DC01FC01672F71917723FA
:10125000E1F7329704C07C916D9370836291AE1771
:0A126000BF07C8F30895F894FFCF0C
:10126A00E70300000000000000000000000000008A
:10127A000000000000000000000000000000000064
:10128A00E703E703E703E703E703E703E703E70304
:10129A00401454466F756E643A004E6F20416C617B
:1012AA00726D2100444F4E450048483A4D4D005357
:1012BA00004E6F207570636F6D696E6700616C61B7
:1012CA00726D2100416C61726D733A0050726573E0
:1012DA007320746865206E756D626572206F662072
:1012EA00616C61726D20746F2064656C6574652031
:1012FA0000416C7265616479203320616C61726DA2
:10130A007320617265207365742100230052656140
:04131A0064792E00C4
:00000001FF
