:100000000C942A000C9449000C9447000C9447006F
:100010000C9447000C9447000C9447000C94470044
:100020000C9447000C9447000C9447000C94470034
:100030000C9447000C9447000C9447000C94470024
:100040000C9447000C9447000C9447000C94470014
:100050000C94470011241FBECFE5D8E0DEBFCDBF12
:1000600010E0A0E6B0E0E6EDF2E002C005900D92EF
:10007000A238B107D9F720E0A2E8B0E001C01D9294
:10008000A638B207E1F70E94A1000C9469010C9414
:1000900000001F920F920FB60F9211248F939F931F
:1000A0008091820090918300019769F41EBC8CB509
:1000B0009DB590938500809384001DBC1CBC10925C
:1000C0008300109282008091820090918300892B9E
:1000D00049F48EB581608EBD81E090E090938300FD
:1000E000809382009F918F910F900FBE0F901F9071
:1000F000189588BB9698959A8FEC97E00197F1F741
:1001000000C0000082B3807C82BB18BA089588BB0F
:10011000969A959A8FEC97E00197F1F700C000004E
:1001200082B3807C82BB18BA0895CF93DF93EC0131
:10013000899118161CF40E948700FACFDF91CF91A5
:100140000895CF93DF93CDB7DEB760970FB6F894DD
:10015000DEBF0FBECDBF8FEF8ABB87BB8BEF81BBEE
:1001600083ED90E30197F1F700C000008BB7806446
:100170008BBF85B7816085BF1FBC81E00E9479007D
:1001800083ED90E30197F1F700C0000088E30E943F
:10019000790083ED90E30197F1F700C000008FE054
:1001A0000E94790083ED90E30197F1F700C0000011
:1001B00078940AE310E0909A95E09A95F1F7909878
:1001C000E0908400F090850080E690E00E94950029
:1001D00080EC0E94790080E790E00E949500C701C2
:1001E000B8010E940C01CB014AE0BE016F5F7F4F56
:1001F0000E943401CE0101960E9495008AE790E0AA
:100200000E94950080E80E94790087EA91E60197B4
:10021000F1F700C00000CFCF97FB072E16F4009433
:1002200007D077FD09D00E94200107FC05D03EF4DD
:10023000909581959F4F0895709561957F4F089592
:10024000AA1BBB1B51E107C0AA1FBB1FA617B707FC
:1002500010F0A61BB70B881F991F5A95A9F7809518
:100260009095BC01CD010895BB274A3031F4992304
:1002700022F4BDE2909581959F4F0C944001BB27DD
:10028000FB015527AA27880F991FAA1FA41710F052
:10029000A41B83955051B9F7A05DAA3308F0A95D5E
:1002A000A193009779F7B111B1931192CB010C94FE
:1002B0005901DC01FC01672F71917723E1F7329737
:1002C00004C07C916D9370836291AE17BF07C8F331
:0602D0000895F894FFCF31
:1002D600454C454354524F4E4946592E4F524700BE
:1002E60044495354414E43453D00636D2020202030
:0202F600000006
:00000001FF
