:100000000C942A000C943F000C943F000C943F0089
:100010000C943F000C943F000C943F000C943F0064
:100020000C943F000C943F000C943F000C943F0054
:100030000C943F000C943F000C943F000C943F0044
:100040000C943F000C943F000C943F000C943F0034
:100050000C943F0011241FBECFE5D8E0DEBFCDBF1A
:1000600010E0A0E6B0E0E8EAF3E002C005900D92EF
:10007000AA36B107D9F70E941B010C94D2010C9447
:10008000000020E030E0281739074CF4EFE9FFE0EA
:100090003197F1F700C000002F5F3F4FF4CF089574
:1000A000C19A85ED8A95F1F70000C198089598B33B
:1000B000937C98BB84FDC29A85FDC39A86FDC49A41
:1000C00087FDC59A0C945000CF93C82F0E9457000B
:1000D0008C2F8295807F0E945700C598CF910895FC
:1000E000C0980C946400C09A0C94640083E30E944E
:1000F000700082E30E94700088E20E9470008CE031
:100100000E94700086E00E94700081E00E947000F2
:1001100083E090E00C94410081E00E94700083E055
:1001200090E00C94410080E80C94700061506330C2
:1001300030F4E62FF0E0E05AFF4F908101C090E0EC
:100140008058890F0C947000682F80E00C94960002
:10015000CF93DF93EC018991882319F00E947300FB
:10016000FACFDF91CF910895CF93DF93CDB7DEB76C
:1001700028970FB6F894DEBF0FBECDBF1A82198242
:10018000FE01339626E0DF011D922A95E9F740E152
:10019000BE016F5F7F4F0E949D01CE0101960E94BC
:1001A000A80028960FB6F894DEBF0FBECDBFDF9132
:1001B000CF910895CF93DF93CDB7DEB728970FB6D1
:1001C000F894DEBF0FBECDBF1A821982FE013396AE
:1001D00026E0DF011D922A95E9F74AE0BE016F5F34
:1001E0007F4F0E949D01CE0101960E94A800289693
:1001F0000FB6F894DEBF0FBECDBFDF91CF9108954B
:100200008FE387BB14BA0895C59A8AEF90E00E94E5
:100210004100C5988AEF90E00C944100CF93C82F1D
:1002200082958F70805D0E9473008C2F8F70805D2F
:10023000CF910C9473000F931F93CF93DF930E9481
:1002400000010E94760083E690E00E94A8002FEF54
:1002500085EA9EE0215080409040E1F700C0000018
:100260000E948C00CAE0D0E081E090E00E94DA00B9
:100270008AE30E94730081E090E00E94DA008AE342
:100280000E947300CE010E94DA002FEF87EE93E008
:10029000215080409040E1F700C000000E948C0097
:1002A000219711F7CCE3D0E081E090E00E94DA00E2
:1002B0008AE30E94730080E090E00E94DA008AE303
:1002C0000E947300CE010E94DA002FEF87EE93E0C8
:1002D000215080409040E1F700C000000E948C0057
:1002E000219711F7CBE3D0E00CE310E080E090E041
:1002F0000E94DA008AE30E947300CE010E94DA00B5
:100300008AE30E947300C8010E94DA002FEF87EE93
:1003100093E0215080409040E1F700C000000E942F
:100320008C000150110910F72197F0F680E090E061
:10033000DF91CF911F910F910895BB274A3031F47F
:10034000992322F4BDE2909581959F4F0C94A901C9
:10035000BB27FB015527AA27880F991FAA1FA4179F
:1003600010F0A41B83955051B9F7A05DAA3308F093
:10037000A95DA193009779F7B111B1931192CB01C7
:100380000C94C201DC01FC01672F71917723E1F726
:10039000329704C07C916D9370836291AE17BF0752
:0803A000C8F30895F894FFCFA3
:0A03A80040145452656164792E0080
:00000001FF
