:100000000C942A000C943F000C943F000C943F0089
:100010000C943F000C943F000C943F000C943F0064
:100020000C943F000C943F000C943F000C943F0054
:100030000C943F000C943F000C943F000C943F0044
:100040000C943F000C943F000C943F000C943F0034
:100050000C943F0011241FBECFE5D8E0DEBFCDBF1A
:1000600010E0A0E6B0E0E6E8F3E002C005900D92F3
:10007000A037B107D9F70E9475010C94C1010C9407
:10008000000020E030E0281739074CF4EFE9FFE0EA
:100090003197F1F700C000002F5F3F4FF4CF089574
:1000A000C19A85ED8A95F1F70000C198089598B33B
:1000B000937C98BB84FDC29A85FDC39A86FDC49A41
:1000C00087FDC59A0C945000CF93C82F0E9457000B
:1000D0008C2F8295807F0E945700C598CF910895FC
:1000E000C0980C946400C09A0C94640083E30E944E
:1000F000700082E30E94700088E20E9470008CE031
:100100000E94700086E00E94700081E00E947000F2
:1001100083E090E00C94410081E00E94700083E055
:1001200090E00C94410080E80C94700061506330C2
:1001300030F4E62FF0E0E05AFF4F908101C090E0EC
:100140008058890F0C947000682F80E00C94960002
:10015000CF93DF93EC018991882319F00E947300FB
:10016000FACFDF91CF910895CF93DF93CDB7DEB76C
:1001700028970FB6F894DEBF0FBECDBF19821A8242
:100180001B821C821D821E821F82188640E1BE01D6
:100190006F5F7F4F0E948C01CE0101960E94A800E4
:1001A00028960FB6F894DEBF0FBECDBFDF91CF917A
:1001B0000895CF93DF93CDB7DEB728970FB6F894A5
:1001C000DEBF0FBECDBF19821A821B821C821D8228
:1001D0001E821F8218864AE0BE016F5F7F4F0E9419
:1001E0008C01CE0101960E94A80028960FB6F894C3
:1001F000DEBF0FBECDBFDF91CF910895AF92BF920A
:10020000CF92DF92EF92FF920F931F93CF93DF93E2
:100210008BB38F608BBBC0E0D0E080E4E82EF12C84
:1002200098E0C92ED12C8AB380788ABB2AB3C70143
:100230000C2E02C0959587950A94E2F7822B8ABB13
:100240005E0100E010E089B390E09601002E02C04C
:10025000359527950A94E2F782239323892BA1F4FD
:100260008AE0A816B10419F480E090E002C0C5014C
:1002700001960E94D9009FEF29EF30E09150204075
:100280003040E1F700C000000F5F1F4F83E0A80E71
:10029000B11C04301105B9F62196C330D10519F609
:1002A000DF91CF911F910F91FF90EF90DF90CF9052
:1002B000BF90AF9008958FE387BB0895C59A8AEFEA
:1002C00090E00E944100C5988AEF90E00C944100B4
:1002D000CF93C82F82958F70805D0E9473008C2F02
:1002E0008F70805DCF910C9473008FE387BB0E9469
:1002F00076002FEF80E792E0215080409040E1F7B8
:1003000000C0000083E690E00E94A80081E00E9407
:10031000A4000E94FE00FDCFBB274A3031F4992390
:1003200022F4BDE2909581959F4F0C949801BB27D4
:10033000FB015527AA27880F991FAA1FA41710F0A1
:10034000A41B83955051B9F7A05DAA3308F0A95DAD
:10035000A193009779F7B111B1931192CB010C944D
:10036000B101DC01FC01672F71917723E1F732972E
:1003700004C07C916D9370836291AE17BF07C8F380
:060380000895F894FFCF80
:1003860040145470726573732061206B65793A006E
:00000001FF
